:100000000C9423020C946A020C946A020C946A0207
:100010000C946A020C946A020C946A020C946A02B0
:100020000C946A020C946A020C9406220C94D82256
:100030000C946A020C946A020C946A020C946A0290
:100040000C946A020C94681C0C946A020C946A0268
:100050000C946A020C94CA190C946A020C946A02F9
:100060000C946A020C946A020C946A020C946A0260
:100070000C946A020C946A020C946A020C946A0250
:100080000C946A020C946A020C946A020C946A0240
:100090000C946A020C946A020C946A020C946A0230
:1000A0000C946A020C946A020C946A025004520482
:1000B0005D045404560458045A045C045F0461044B
:1000C00063046E046504670469046B046D047004C2
:1000D0001F0F1F0F510F510F8F0FAD0F351135111E
:1000E000EF0F35119210921004110D1135112E11D0
:1000F0009F109F109F109F109F109F109F109F1088
:100100009F109F109F109F109F109F109F109F1077
:10011000B010BE10C510CC10D610C611C611D81123
:10012000D811CF11D811D811D811C611C611D411B8
:10013000D811D811D41145236C2364246C23642472
:10014000B823DB236424322441245F006000610073
:1001500063005C005D005E00570059005A005B00C0
:1001600056006200550054005841BE5CC95C000056
:100170000000BD5CCA5C00000000C55CC75C0000FC
:10018000B200C65CC85C2A0001000000000000014B
:100190000101010101010101020202020202020247
:1001A0000203030303030303030404040404040518
:1001B00005050505060606060607070707080808D9
:1001C000080909090A0A0A0A0B0B0B0C0C0C0D0D85
:1001D0000D0E0E0F0F0F1010111111121213131418
:1001E00014151516161717181819191A1A1B1C1C8E
:1001F0001D1D1E1F1F2020212222232425252627E6
:100200002728292A2B2B2C2D2E2F2F303132333417
:100210003536363738393A3B3C3D3E3F4041424324
:1002200044464748494A4B4C4D4F505152535556FE
:1002300057585A5B5C5E5F606263646667696A6CAC
:100240006D6E707173747678797B7C7E8081838427
:1002500086888A8B8D8F91929496989A9B9D9FA168
:10026000A3A5A7A9ABADAFB1B3B5B7B9BBBDBFC16E
:10027000C4C6C8CACCCFD1D3D6D8DADCDFE1E4E635
:10028000E8EBEDF0F2F5F7FAFCFF000000000000EB
:100290000000000000010204060A0F17202C3A4A51
:1002A0005D71879DB3C7DAE9F5FCFFFCF5E9DAC7B4
:1002B000B39D87715D4A3A2C20170F0A060402018C
:1002C00000000000000000000000040330000000F7
:1002D0001203430068006F0063006F00700061004C
:1002E000640000000E034B006500650062006900B9
:1002F0006F0000000403090409023B00020100A092
:10030000FA090400000103010100092111010001A3
:100310002240000705810308000A090401000103C7
:1003200000000009211101000122C000070582031D
:1003300020000A120110010000000810CB44110037
:10034000010102030105010902A10185020901A1C0
:10035000000509190129051500250195057501817B
:1003600002950175038101050109300931158125C7
:100370007F95027508810609381581257F950175DD
:10038000088106050C0A38021581257F950175083C
:100390008106C0C005010980A10185031601002660
:1003A00003001A81002A8300751095018100C005A1
:1003B0000C0901A1018504160100269C021A010006
:1003C0002A9C02751095018100C005010906A10152
:1003D0008505050719E029E7150025019508750130
:1003E00081020508190129059505750191029501FC
:1003F000750391010507190029EF1500250195F0F6
:1004000075018102C005010906A101050719E0294E
:10041000E715002501950875018102950175088190
:1004200001050819012905950575019102950175C8
:100430000391010507190029FF150026FF00950605
:1004400075088100C00011241FBECFEFDAE0DEBFC7
:10045000CDBF04B603FE27C0809101029091020235
:10046000A0910302B09104028730904BA740B04B9B
:10047000D1F4109201021092020210920302109223
:10048000040214BE84B7877F84BF0FB6F894A89582
:1004900080916000886180936000109260000FBEC0
:1004A000E0E0F8E3099511E0A0E0B1E0E8EBFAE460
:1004B00002C005900D92AC31B107D9F722E0ACE152
:1004C000B1E001C01D92A130B207E1F70E942E1FDA
:1004D0000C945A250C94000081E0089581E0089561
:1004E0000C946E020C94D507CF92DF92EF92FF929C
:1004F000863030F4811105C0909180009F7704C050
:1005000085E090918000906890938000282F30E0E3
:10051000AFEFBFEF0E94F82425E030E040E050E06C
:100520000E94D024C9012C3764E1360728F469E021
:1005300070E00E94A82429C0DA01C9018A50974DB1
:10054000AF4FBF4F6627782F892F9A2F25EF38E2BC
:1005500041E050E00E94D02469017A01CA01B9014A
:100560000E9498249B01AC01C701B6010E94982407
:10057000BB27A92F982F872F009721E0A207B1054D
:1005800011F0BC0102C06FEF7FEF709389006093A0
:100590008800FF90EF90DF90CF900895259A2D98D6
:1005A00082E88093800089E1809381008FEF9FEF44
:1005B00090938700809386000C94A71C0E944D188E
:1005C000811102C00E94D0180E94CE020C94D30761
:1005D00008950C94E8020C94E90208950E94B41165
:1005E0000E94ED022FEF84E39CE021508040904078
:1005F000E1F700C000000C94F019FF920F931F93D5
:10060000CF93DF938C01FC01C081D18180913A01AD
:10061000811113C08281882349F0CE010E941B17EB
:10062000F82E682FCE010E94C61604C0CE010E948B
:10063000F016F82EBE018F2D04C0CE010E941B17AC
:10064000BE010E942405EC01B8010E9470028823BB
:1006500009F4EFC1C93CFCE5DF0709F4C6C0C0F5E9
:10066000C23C8CE5D80709F486C0C0F4C531ECE57E
:10067000DE0778F4C230FCE5DF0708F0EFC0C115F3
:100680002CE5D20709F45CC0C130DC4509F460C038
:10069000C3C1C631DC4509F498C1BEC1C53CECE517
:1006A000DE0709F488C050F4C33C2CE5D20709F4F6
:1006B0006AC0C43CDC4509F472C0AEC1F801828155
:1006C000C73CFCE5DF0709F484C008F47CC087C0A0
:1006D000C63D8CE5D807B0F4CE3C9CE5D90708F0C0
:1006E000A8C1CB3CECE5DE0709F48FC008F485C057
:1006F000CC3C2CE5D20709F490C0CD3CDC4509F494
:1007000094C08AC1C93D9CE5D90709F443C150F49E
:10071000C73DFCE5DF0709F4F3C0C83DDC4509F43B
:1007200012C17AC1CD3D8CE5D80709F48EC0CE3D0B
:100730009CE5D907C1F0CC3DDC4509F06DC17EC018
:10074000F8018281882309F474C10E94EE0271C10C
:10075000F8018281882309F46CC18091AA0181602B
:100760008093AA0166C1F8018281882309F461C1DE
:100770000E94D0185EC1F8018281882309F459C112
:100780000E947A0B56C1F8018281882309F451C175
:100790000E949C17827261F00E946B0B4AC1F801A3
:1007A0008281882309F445C10E949C178272A1F3BB
:1007B0000E945D0B3EC1F8018281882309F439C192
:1007C0000E94880A36C1882309F433C10E94AB0A0B
:1007D00030C1882309F42DC10E94CB0A2AC1882385
:1007E00009F427C10E94EB0A24C1F8018281882301
:1007F00009F41FC10E940B0B1CC1F80182818823E0
:1008000009F417C10E942B0B14C1F80182818823BF
:1008100009F40FC10E94BA090CC1F8018281882332
:1008200009F407C10E94CF0904C1F801828188231D
:1008300009F4FFC081E00E946E0BFBC0F8018281C9
:10084000882309F4F6C080E006C0F801828188237D
:1008500009F4EFC082E00E94CD1FEBC0F801828155
:10086000882309F4DEC00E944D18811102C00E9445
:10087000D0180E94601890E09093F2018093F101EB
:10088000FE01E350FC45E231F10530F4EA5AFF4F36
:100890008091F1010C94F2248091F101816027C0D4
:1008A000826025C0846023C0806121C080621FC037
:1008B00080641DC080681BC08460886018C08E7F03
:1008C00016C08D7F14C08B7F12C08F7E10C08F7DAD
:1008D0000EC08F7B0CC08F770AC08B7F877F07C0CD
:1008E00087FB222720F991E0922790FB87F98093DC
:1008F000F1018091F1010E9464180E94B41199C025
:10090000F8018281882351F0109221010E949419EC
:1009100090931E0180931D0182E022C080912101ED
:1009200081110FC080911D0190911E010E94A0199C
:100930008039914030F486E20E94560D86E20E9492
:10094000740E82E024C0F8018281882361F0109245
:1009500022010E9494199093200180931F0180E24C
:100960000E94DC0E66C08091220181110FC080912F
:100970001F01909120010E94A0198039914030F40C
:1009800087E20E94560D87E20E94740E80E20E9468
:10099000E30E4FC0F80182818111D9CF80912201ED
:1009A0008111F4CF80911F01909120010E94A01924
:1009B0008039914058F780E20E94E30E88E20E945D
:1009C000560D88E20E94740E34C00E949C17982F26
:1009D000F80182812091000130910101882379F092
:1009E0009A7A81E009F480E080931C01911102C0A1
:1009F00069E201C065E3C9010E9438190AC080910B
:100A00001C01811102C069E201C065E3C9010E94B5
:100A100043190E94EA170DC081E080932101809361
:100A20002201C801DF91CF911F910F91FF900C948B
:100A30006C0280E0DF91CF911F910F91FF9008959C
:100A400080E090E008950895E72FF0E094E0899F1A
:100A5000E00DF11D1124EE0FFF1FEE0FFF1FE60F3B
:100A6000F11DEE0FFF1FE65BFE4F859194910895F7
:100A7000880F991FFC01E657FE4F859194910895C8
:100A8000CF93DF930E9424050E943107EC0181156A
:100A900021E5920708F042C0811540E5940708F06F
:100AA0002FC1883E910500F5803E910508F0D5C123
:100AB000883A910570F4853A910508F0A4C0813018
:100AC000910509F4CAC108F47BC1049708F0C5C1B7
:100AD00077C18F3B910508F4A1C0803C910508F4D3
:100AE0006FC1805C9109FBC0C11580E3D80780F419
:100AF000C11520E2D20708F0F0C0C03FD10508F4CC
:100B00005FC1CF3FD10511F008F0A7C1D065A5C1E5
:100B1000C11540E4D40708F0F0C0E5C0C11589E56F
:100B2000D80760F5C11528E5D20708F035C1C11511
:100B300044E5D40778F4C11583E5D80708F011C15E
:100B4000C11522E5D20708F0F6C0DC2FCC27C16F13
:100B5000D06A83C1C11545E5D40708F418C1C11591
:100B600086E5D80708F02CC18C2F0E94AD078F7145
:100B7000C82FD0E0DC2FCC27D0626FC1CD3B2CE555
:100B8000D20709F414C1F0F4CB3B8CE5D80709F483
:100B900008C108F009C1C1154AE5D40708F010C121
:100BA0008C2F8F700E94AD0794E0D695C7959A95CB
:100BB000E1F7CF70D0E0DC2FCC27D06A8F70806E49
:100BC000C82B4BC1C03C8CE5D80709F4F6C060F4D3
:100BD000CE3B4CE5D40709F4EDC0CF3BDC4509F032
:100BE000EFC0C0E0D2ED39C1CE01905681159042E0
:100BF00008F0E6C08D2F8F710E94AD07DD27D0620F
:100C00008F71D82B2AC1853A910509F4DCC0863A48
:100C1000910509F0DBC0C2E8D0E41FC1883A910514
:100C200009F4D7C0893A910509F4D6C08A3A9105EA
:100C300009F4D5C08B3A910509F4D4C08C3A9105DA
:100C400009F4D3C08B3B910509F4D2C08C3B9105CC
:100C500009F4D1C08D3A910509F4D0C0803B9105CB
:100C600009F4CFC08E3A910509F4CEC08F3A9105B0
:100C700009F4CDC0813B910509F4CCC0823B9105BC
:100C800009F4CBC0833B910509F4CAC0843B9105AC
:100C900009F4C9C0853B910509F4C8C0863B91059C
:100CA00009F4C7C0873B910509F4C6C0883B91058C
:100CB00009F4C5C0893B910509F4C4C08D3B910579
:100CC00009F4C3C08E3B910509F4C2C08A3B91056B
:100CD00009F4C1C0C0E0D4E4C0C0CE019F700E943E
:100CE0003805EC01BAC0CE019927D3FF03C0EC014F
:100CF000D86CB3C0EC01D06CB0C0DF70D06AADC0AE
:100D000074E0969587957A95E1F783709C2F9370A0
:100D100021E030E002C0220F331F9A95E2F73C68D1
:100D2000382BCF70C695C69540E2C49FE0011124D0
:100D3000C22BD32B92C0CE018370992721E030E0E3
:100D400002C0220F331F8A95E2F78C2F8695869575
:100D500040E2849FC0011124E901C82BD92BDC6833
:100D60007CC0CE018370992721E030E002C0220FC1
:100D7000331F8A95E2F78C2F8695869540E2849FF3
:100D8000C0011124E901C82BD92BDA6866C0DC2F19
:100D9000CC27C46FD06A61C0DC2FCC27C06FD06A6B
:100DA0005CC0C0E0D4ED59C0C0E0D5ED56C0C0E095
:100DB000D1ED53C0C0E0D0ED50C0C0E0D3ED4DC088
:100DC000C0E0D0E04AC0C1E8D0E447C0C3E8D0E406
:100DD00044C0C2EED4E441C0C9EED4E43EC0CAEE81
:100DE000D4E43BC0C5EBD4E438C0C6EBD4E435C092
:100DF000C3EBD4E432C0C4EBD4E42FC0C7EBD4E4DB
:100E00002CC0CCECD4E429C0CDECD4E426C0C3E89B
:100E1000D5E423C0CAE8D5E420C0C2E9D5E41DC0AA
:100E2000C4E9D5E41AC0C1E2D6E417C0C3E2D6E4EF
:100E300014C0C4E2D6E411C0C5E2D6E40EC0C6E2D6
:100E4000D6E40BC0C7E2D6E408C0CFE6D4E405C0C0
:100E5000C0E7D4E402C0CAE2D6E4CE01DF91CF916C
:100E600008958238910549F1B0F48133910509F470
:100E700059C048F48932910509F44FC08A3291056E
:100E800009F455C008958533910509F441C08933AB
:100E9000910599F00895833E910531F138F4803E33
:100EA000910591F0823E9105A9F00895863E910545
:100EB00001F1873E910539F108952091F10120FD5E
:100EC0003BC021FD39C008958091F10180FF34C0FD
:100ED00089E341C08091F10182FF30C08091F1012E
:100EE00084FD2EC083EE37C08091F10182FD26C0C3
:100EF000F5CF8091F10183FF25C08091F10184FD40
:100F00001FC087EE28C08091F10183FD1BC0F5CF83
:100F10008091F10185FD18C019C08091F10185FD16
:100F200015C012C08091F10186FD12C013C08091DE
:100F3000F10186FD0FC00CC080EE0DC082EE0BC02B
:100F400080E009C086EE07C089E205C085E303C0E2
:100F50008AE201C081E390E008959091F10192FF4F
:100F60000DC0282F2871283019F4877F846006C0AF
:100F7000282F2471243011F48B7F886093FF0DC0DB
:100F8000282F2871283119F4877E846106C0282F04
:100F90002471243111F48B7E886194FD877E08953D
:100FA00008950C94D0070C94D1070C94D007A7E1B6
:100FB000B1E04BE151E061E070E08D91E82FE29506
:100FC000EF70F0E091A18F709B0101C0220F8A9514
:100FD000EAF7822F8095892381A34A175B0769F777
:100FE000A3E1B1E041E050E08D91E82FE295EF7090
:100FF000F0E021A18F70BA0102C0660F771F8A95B9
:10100000E2F7CB01962F9095922391A392A1892B81
:1010100082A371E0A731B70739F710922701109228
:10102000230110922801109224011092290110929C
:10103000250110922A011092260184E00E94BB082B
:101040000C94DE022F923F925F926F927F928F926A
:101050009F92AF92BF92CF92DF92EF92FF920F9347
:101060001F93CF93DF9397E1292E91E0392EA7E2CA
:10107000B1E02BE2C22E21E0D22E20E001E010E010
:101080005D013C911C92E10189911E01E82FE295DE
:10109000EF70F0E091A18F70A80101C0440F8A9514
:1010A000EAF7892F842B81A382A1742E7094872163
:1010B00082A3D0EADA95F1F783E1E82E81E0F82EF9
:1010C00060E070E0E70169907E01862D82958F7067
:1010D00090E0EC0188A05C90912C962D9F7002C04E
:1010E000959487949A95E2F780FC08C0902F062E7D
:1010F00001C0990F0A94EAF7892F01C080E0852981
:101100008C936F5F7F4F64307105E1F681A1782287
:1011100071A282A1482B42A3119681E0F501908132
:10112000931301C080E0282BCA16DB0609F0A8CF74
:1011300044E063E271E087E291E00E94BC080E9413
:10114000720281E0DF91CF911F910F91FF90EF909C
:10115000DF90CF90BF90AF909F908F907F906F90D7
:101160005F903F902F900895E82FF0E0ED5DFE4FE7
:101170008081089508950895FF920F931F93CF9350
:10118000DF938C01F62ED72FC42F222349F081E064
:1011900080932D010E94941990932C0180932B0130
:1011A00080912D018823C1F080912B0190912C0119
:1011B0000E94A019069780F0EF2DFD2FD8014C2F2B
:1011C00050E0CD01801B910B841795071CF48D9185
:1011D0008193F7CF10922D01DF91CF911F910F9145
:1011E000FF900895EF92FF920F931F93CF93DF9399
:1011F000E901662309F44BC0242F30E0EFEFF0E063
:10120000E61BF109B901E69F9001E79F300DF69FBB
:10121000300D1124232F8B01031B11095CE3E52EF4
:10122000F12CB7010E94A824FB01BC01069FC0015C
:10123000079F900D169F900D1124B7010E94A824BE
:10124000E230F105B1F040F4309779F0319711F5C3
:10125000832F242F461B21C0E430F105A1F068F054
:101260003597C1F4842F861B18C0832F262F230F98
:1012700014C0862F830FE42F03C0E42FE61B842FB6
:10128000432F2E2F0AC0842F462F430F06C0842FD2
:10129000242F03C080E020E040E0E42FF0E0E65798
:1012A000FE4F4491E22FF0E0E657FE4F9491E82F75
:1012B000F0E0E657FE4FE49149839883EA83DF919B
:1012C000CF911F910F91FF90EF9008958091DA01D7
:1012D000982F96959F73913021F08178826080934A
:1012E000DA013091DA01432F441F4427441F209133
:1012F000DB01522F550F852F842B27FB992790F95F
:10130000893641E094077CF068E671E00E94BC24D5
:1013100080FB37F93093DA0186952078822B90FB99
:1013200087F98093DB01089588E090E00C941A25FA
:10133000CF92DF92EF92FF926B017C010E946609CF
:10134000B701A60188E090E0FF90EF90DF90CF908A
:101350000C943825EAEDF1E083E080831092DB0104
:101360008FEF828383831482608171818281938174
:101370000C9498098091DE0190E0019684309105EB
:1013800014F083E090E08093DE016091DA017091C7
:10139000DB018091DC019091DD010C949809809132
:1013A000DE0190E0019797FF02C080E090E084307A
:1013B000910514F083E090E08093DE016091DA0102
:1013C0007091DB018091DC019091DD010C94980912
:1013D0008091DA0180FF06C064E070E08FED91E05B
:1013E0000C94ED0BEFEDF1E0118210821282339636
:1013F00081E0EB3EF807C1F7EFCFEAEDF1E0808145
:101400008E7F808360817181828193810E9498099F
:101410002FEF80E792E0215080409040E1F700C03C
:1014200000000C94E8099091DA0190FF0CC0EFEDF8
:10143000F1E0818360834283339691E0EB3EF907CC
:10144000C1F70C94E8090895DF92EF92FF920F9391
:101450001F93CF93DF9300D01F92CDB7DEB73091AB
:10146000DA0130FF31C0D22E042FF62EE92E182FCC
:101470003E77323051F49E012F5F3F4F0E94F208B9
:101480004B8169818A810E94130A8091DA0110FBE5
:1014900087F98093DA0116958091DB018078182B0B
:1014A000E0FA17F91093DB01F092DC010093DD0103
:1014B000DD2051F06091DA017091DB018091DC0157
:1014C0009091DD010E9498090F900F900F90DF918D
:1014D000CF911F910F91FF90EF90DF900895282FEB
:1014E000EAEDF1E03081331F3327331F4091DB01F8
:1014F000542F550F852F832B47FB992790F90A9678
:1015000068E671E00E94BC24438162810C94240A45
:1015100081E00C946F0A282F3091DA01331F3327B2
:10152000331F4091DB01542F550F852F832B47FB31
:10153000992790F98A3091051CF4825A9E4F05C074
:101540000A9768E671E00E94BC244091DD01609139
:10155000DC010C94240A81E00C948B0A6091DC017C
:10156000262F30E02F3E310514F46F5E01C06FEF7F
:101570003091DA01331F3327331F9091DB01592F4C
:10158000550F97FB992790F9282F4091DD01852F62
:10159000832B0C94240A81E00C94AE0A6091DC0148
:1015A000262F30E02131310514F0615101C060E097
:1015B0003091DA01331F3327331F9091DB01592F0C
:1015C000550F97FB992790F9282F4091DD01852F22
:1015D000832B0C94240A81E00C94CE0A4091DD0107
:1015E000242F30E02F3E310514F44F5E01C04FEF41
:1015F0003091DA01331F3327331F9091DB01592FCC
:10160000550F97FB992790F9282F6091DC01852FC2
:10161000832B0C94240A81E00C94EE0A4091DD01A6
:10162000242F30E02131310514F0415101C040E058
:101630003091DA01331F3327331F9091DB01592F8B
:10164000550F97FB992790F9282F6091DC01852F82
:10165000832B0C94240A81E00C940E0B20E00C9454
:10166000240A8091DA0180FF23C081788260809310
:10167000DA01662351F06091DA017091DB0180910B
:10168000DC019091DD010E9498098091DA01881FA8
:101690008827881F9091DB01292F220F97FB99271C
:1016A00090F94091DD016091DC01822B0C942E0BAE
:1016B0000895682F81E00C94310B81E00C94590B54
:1016C000682F9091DA0196959F738FEF890F09F437
:1016D00081E00C94310B81E00C94600B61E00C9480
:1016E000310BEAEDF1E080818160808386958F7314
:1016F0000C946E0B8091DA0180FD0C94FD090C9422
:10170000710B60E00C94310B80912E01811132C07D
:101710008091AA0181608093AA010E944D188111D5
:1017200004C00E94D0180E94AA090E9494096093E4
:10173000DA017093DB018093DC019093DD016E7719
:1017400061F40E94AA090E9494096093DA017093DF
:10175000DB018093DC019093DD010E94660980919A
:10176000DA0180FF04C086958F730E94810B81E0AF
:1017700080932E0108952BB1342F309523233BB154
:10178000432B3FB7F894FC01680F791FE617F70762
:1017900089F0819198E04BB9000000C087FF2BB918
:1017A000880F000000C000C000C02BB900C09A958F
:1017B00091F7ECCF3FBF08952AB1242B2AB99B01A2
:1017C000220F331F620F731F0E94BB0B87EC90E048
:1017D0000197F1F700C00000089548E00C94DC0B7D
:1017E00090933401809333010895E0913301F09197
:1017F0003401309721F00190F081E02D099480E0D0
:101800000895E0913301F0913401309799F02091DF
:101810001201222359F02091F10127FF07C0DC01BA
:101820002C9111962C93119725E02C930280F38133
:10183000E02D09940895E0913301F091340130973F
:1018400039F022E0DC012C930480F581E02D09942D
:10185000089520913101309132012817390771F034
:101860009093320180933101E0913301F091340182
:10187000309721F00680F781E02D0994089520919A
:101880002F01309130012817390771F09093300102
:1018900080932F01E0913301F0913401309721F0D2
:1018A0000084F185E02D0994089585B7806885BF8F
:1018B00085B7806885BF089508950C945C0C0C94DE
:1018C0005D0C0C945C0C0C945C0C0E94550C0E94FA
:1018D000610C0C945F0C81E008950E948B190E94AA
:1018E000D7070E94141A0E94A71C0E94840B0C9414
:1018F000630CBF92CF92DF92EF92FF920F931F93F0
:10190000CF93DF93CDB7DEB72A970FB6F894DEBF3B
:101910000FBECDBF0E9422080E946B0C811111C026
:101920008FEF89838A831B820E9494198160782FAC
:101930009D838C8349815A816B818D810E94220D08
:1019400054C086E3C82E81E0D82E00E010E0B02E0F
:10195000802F0E94B408E82EF60121916F01F82E25
:10196000F22631F40F5F1F4F0430110581F7D8CFF5
:101970008091AA0181FD0E94BA0880E090E02F2D9D
:1019800030E0482FB901082E02C0759567950A947A
:10199000E2F760FF25C08E83BF8281E090E06C019A
:1019A00002C0CC0CDD1C4A95E2F72E2D30E02C2134
:1019B0003D21232B09F480E088870E9494198160DF
:1019C000782F9A8789874E815F8168858A850E94F2
:1019D000220DF801EA5CFE4F80818C25808305C0D2
:1019E00001968430910569F6BDCF0E94A71B0E9425
:1019F000F50B909135018917A9F00E94F50B8093A2
:101A000035012A960FB6F894DEBF0FBECDBFDF9129
:101A1000CF911F910F91FF90EF90DF90CF90BF90EB
:101A20000C94EB022A960FB6F894DEBF0FBECDBF22
:101A3000DF91CF911F910F91FF90EF90DF90CF90AA
:101A4000BF900895CF93DF93CDB7DEB72B970FB636
:101A5000F894DEBF0FBECDBF4F83588769877A8762
:101A60008B87DE01119686E0FD0111928A95E9F7D8
:101A700085E0FE01379601900D928A95E1F7498144
:101A80005A816B817C818D819E810E948B142B9663
:101A90000FB6F894DEBF0FBECDBFDF91CF91089592
:101AA000FC01808191810E945D170895882309F4CB
:101AB0001AC18238C1F40E94F50B81FD14C169E39B
:101AC00080910001909101010E9438190E94EA174B
:101AD0002FEF81EE94E0215080409040E1F700C06C
:101AE000000069E319C08338F9F40E94F50B80FD0A
:101AF000FAC063E580910001909101010E943819BC
:101B00000E94EA172FEF81EE94E021508040904030
:101B1000E1F700C0000063E58091000190910101B0
:101B20000E9443190C94EA178438C1F40E94F50B03
:101B300082FDD9C067E480910001909101010E946B
:101B400038190E94EA172FEF81EE94E0215080406F
:101B50009040E1F700C0000067E4DECF9CEF980FF3
:101B6000913A40F4682F80910001909101010E9408
:101B70003819D8CF90E2980F983050F4877091E0E0
:101B800001C0990F8A95EAF7892F0E949F17CACF43
:101B90009BE5980F933070F4853A29F0863A31F03E
:101BA00083E890E005C081E890E002C082E890E020
:101BB0000C94290C98E5980F973108F08EC0883A5C
:101BC00009F445C0893A09F445C08A3A09F445C088
:101BD0008B3A09F445C08C3A09F445C08B3B09F4B3
:101BE00045C08C3B09F445C08D3A09F445C0803BA3
:101BF00009F445C08E3A09F445C08F3A09F445C04E
:101C0000813B09F445C0823B09F445C0833B09F49C
:101C100045C0843B09F445C0853B09F445C0863B7B
:101C200009F445C0873B09F445C0883B09F445C029
:101C3000893B09F445C08D3B09F445C08E3B09F44E
:101C400045C08A3B09F445C080E090E044C082EE84
:101C500090E041C089EE90E03EC08AEE90E03BC04B
:101C600085EB90E038C086EB90E035C083EB90E0E8
:101C700032C084EB90E02FC087EB90E02CC08CEC5E
:101C800090E029C08DEC90E026C083E891E023C06D
:101C90008AE891E020C082E991E01DC084E991E0EA
:101CA0001AC081E292E017C083E292E014C084E29D
:101CB00092E011C085E292E00EC086E292E00BC095
:101CC00087E292E008C08FE690E005C080E790E0F0
:101CD00002C08AE292E00C943F0C803F20F00E9408
:101CE000AF1A0C949C1B0895882309F464C08238B1
:101CF00079F40E94F50B81FF5EC069E380910001D9
:101D0000909101010E9438190E94EA1769E310C0FE
:101D10008338B1F40E94F50B80FF4DC063E58091DC
:101D20000001909101010E9438190E94EA1763E5B1
:101D300080910001909101010E9443190C94EA17CF
:101D4000843879F40E94F50B82FF35C067E48091F6
:101D50000001909101010E9438190E94EA1767E47E
:101D6000E7CF9CEF980F913A10F4682FE1CF90E203
:101D7000980F983050F4877091E001C0990F8A95C0
:101D8000EAF7892F0E94A517D9CF9BE5980F9330CA
:101D900020F480E090E00C94290C98E5980F97319E
:101DA00020F480E090E00C943F0C803F20F00E94F3
:101DB000171B0C949C1B0895882321F00E949F17E9
:101DC0000C94EA170895882321F00E94A5170C941B
:101DD000EA1708958F929F92AF92BF92DF92EF928F
:101DE000FF920F931F93CF93DF937C01D62FC72FC2
:101DF000FC01058102950F70128111110E94BC1720
:101E00000E949517882379F0112369F080E28D0FE5
:101E1000883048F082E00E9434180E94951791E0C3
:101E2000D82ED92601C0D12CBC2EB2948FE0B82276
:101E30008B2D90E0FC01E859FF4F0C94F2248C2F7D
:101E4000807FCF70882311F0C295C07F112399F055
:101E5000CC2309F4C4C180E28D0F883010F0D11179
:101E600004C08C2F0E949F1703C08C2F0E94AF17B5
:101E70000E94EA17B4C18D2F0E94740ECC2309F47E
:101E8000F4C180E28D0F883010F0D11104C08C2F86
:101E90000E94A51703C08C2F0E94B5170E94EA1755
:101EA000E4C18C2F807FCF70803211F0C295C07F4B
:101EB000DD2319F0D130C9F022C0112371F00023C5
:101EC00041F0013031F40E94CF178C2B0E94D717BC
:101ED000CCC10E94CF178C2B3AC1002319F00130DE
:101EE00009F4C3C10E94E01718C0112321F0063085
:101EF00008F0BBC10EC0053008F0B7C10EC01123F9
:101F000051F0002331F0F701858180FF68C18F70A7
:101F100085838C2F1CC1011173C18C2F1EC18C2F86
:101F200086958695837019F0813061F09EC11123EA
:101F300021F08D2F9C2F937002C080E090E00E94D2
:101F4000290CA0C1112321F08D2F9C2F937002C06A
:101F500080E090E00E943F0C95C11123F9F0D53F3D
:101F600051F0D63F71F0D43FA9F48091EB019091EC
:101F7000EC0181600BC08091EB019091EC018260DB
:101F800005C08091EB019091EC0184609093EC018D
:101F90008093EB018D2F0E94AF1A1EC0D53F51F0E8
:101FA000D63F71F0D43FA9F48091EB019091EC0100
:101FB0008E7F0BC08091EB019091EC018D7F05C06D
:101FC0008091EB019091EC018B7F9093EC018093D9
:101FD000EB018D2F0E94171B0E949C1B53C18C2F5D
:101FE000837009F04CC0111149C12D2F22952695FF
:101FF0002770220F220F6D2F6F70862F90E0A0E0C8
:10200000B0E04C015D01022E04C0880C991CAA1C92
:10201000BB1C0A94D2F7D4FF12C08FE090E0A0E07E
:10202000B0E004C0880F991FAA1FBB1F2A95D2F7E2
:10203000BC01CD01609570958095909503C060E0DE
:1020400070E0CB01C695C695C370C23051F080F4E4
:10205000682979298A299B29C13071F00E94DC15F1
:102060000DC1682979298A299B290E94EE1506C18C
:102070000E94DC15C501B4010E94CA15FFC01123DE
:1020800019F08C2F817001C08695882309F4F6C061
:102090002D2F229526952770220F220F6D2F6F70FE
:1020A000862F90E0A0E0B0E04C015D01022E04C05C
:1020B000880C991CAA1CBB1C0A94D2F7D4FF12C02E
:1020C0008FE090E0A0E0B0E004C0880F991FAA1F45
:1020D000BB1F2A95D2F7BC01CD0160957095809504
:1020E000909503C060E070E0CB01C695C695C370C3
:1020F000C23051F080F4682979298A299B29C1309E
:1021000071F00E94A116BAC0682979298A299B29F1
:102110000E94B316B3C00E94A116C501B4010E946B
:102120008F16ACC08D2F90E0FC01E05EF109E53127
:10213000F10508F050C0E858FF4F0C94F224DF700E
:102140008C2F8F71112331F00E9428168D2F0E9441
:10215000DC0E8BC00E9449168D2F0E94E30E85C0B5
:10216000112341F0053008F080C08C2F8F710E9440
:102170006E167BC0063008F078C0F7CF112339F017
:102180008C2F8F710E94281670C01123C9F38C2FD9
:102190008F710E94491669C0112329F08C2F8F710D
:1021A0000E94131662C00E940E165FC0112349F0F0
:1021B000CF718C2F0E94281663E08C2F0E941F186D
:1021C00054C081E00E943418023008F44EC082E00E
:1021D0000E9434184AC0112331F0002389F28D2F58
:1021E0000E94560D42C0002391F2D93349F4FFEF0B
:1021F00027EE83E0F15020408040E1F700C000006E
:102200008D2F0E94740E31C04C2F4F706D2FC7015F
:102210000E9420050E94391535C0111133C0CF70BE
:10222000C23091F038F4CC2361F0C130F1F40E9457
:10223000E11C28C0C43071F050F0C530B1F480E02A
:102240000AC00E94C41C1EC00E94201D1BC00E9408
:10225000271D18C085E00E944A1D14C04C2F4F70E6
:102260006D2FC7010E9423050DC098E0B91631F00B
:10227000B91640F086EF8B0D823020F40E94F50BEA
:102280000E94EB02DD20E1F00E94911780FD18C052
:10229000F70112820E948B170E942816C7010E9424
:1022A0006C110E948B17DF91CF911F910F91FF90BE
:1022B000EF90DF90BF90AF909F908F900C94491655
:1022C000DF91CF911F910F91FF90EF90DF90BF9022
:1022D000AF909F908F9008950F931F93CF93DF93AC
:1022E000EC01988189812B813C81232B31F08F3F38
:1022F00031F481E09F3F19F403C081E001C080E028
:1023000080FD13C0CE010E94FD02882371F0688118
:1023100079818A810E9468178C010E94C5160E94EB
:10232000B615B801CE010E94EA0EDF91CF911F9140
:102330000F9108950E94BC170E94CC170E94EA17C3
:102340000E943E1C0E949C1B80E090E00E94290C91
:1023500080E090E00C943F0C80910001909101018D
:102360000E944E190C949A110E94AC170C94AC1157
:10237000E92FE295EF704E2F50E0FA013297EE30E0
:10238000F105B0F4E357FF4F0C94F224803F91F035
:1023900018F4803E68F40EC0843F51F40BC0803EB8
:1023A00048F0813F29F406C093FB882780F90895FF
:1023B00080E0089581E008950E945D170E94B811A1
:1023C0000895CF93DF9300D000D01F92CDB7DEB732
:1023D0000F900F900F900F900F90DF91CF91089575
:1023E000CF93DF9300D000D000D0CDB7DEB72696D4
:1023F0000FB6F894DEBF0FBECDBFDF91CF91089529
:102400001F93CF93DF93C0913B0116E080913C0175
:10241000C81799F0D0E01C9FF0011D9FF00D11240A
:10242000E35CFE4F4081518162817381848195819B
:102430000E94F0112196C770E9CFDF91CF911F91D3
:10244000089540916D0150916E0160916F017091FE
:10245000700180917101909172010C94F011CF93F1
:102460008091720182958F7009F05FC080916F0139
:10247000882309F45AC080913B01B0913C017091CE
:102480006D01A0916E01409170015091710191E038
:102490007F3F09F090E0692FC6E08B1709F445C033
:1024A0004115510521F0AF3F21F020E003C021E0AC
:1024B00001C0262F90E020FD35C0C89FF001C99FC4
:1024C000F00D1124E35CFE4F21812A132BC02081E3
:1024D000271328C02281211125C02381348124178C
:1024E000350710F421503109241B350B20393140B8
:1024F000C8F4209172012F7020612093720126E0B0
:10250000289FF001299FF00D1124EE5BFE4F808182
:102510008F70806180838DE691E00E946C11CF9175
:102520000C94001201968770B8CFCF910895AF92A6
:10253000BF92CF92DF92EF92FF920F931F93CF93B0
:10254000DF93CDB7DEB761970FB6F894DEBF0FBE4D
:10255000CDBF8C0185E0F801DE011D9601900D9242
:102560008A95E1F7D8014C9111965C9111971296DA
:10257000EC9030916D0160916E01809170019091AD
:102580007101009731F06F3F31F421E03F3F19F4C2
:1025900003C021E001C020E0B22FB170BB2E20FDAE
:1025A00068C1F801C380D480A0906F01AA2009F40B
:1025B000F3C020917201C816D90650F0D601A81BAD
:1025C000B90BCD01FF24F39480399140D0F009C0BC
:1025D000809590958C0D9D1DFF24F394803991403A
:1025E00080F0F12C207F09F09CC07C2DD98AC88A0C
:1025F0006E2D89890E94E1118DE691E00E946C1197
:1026000030C1822F807F09F055C0561315C0431387
:1026100013C0FE2CE11010C02F70206120937201B6
:102620000E9421128DE691E00E946C11809172014E
:10263000D80115968C935DC1CD2831F05F3F31F400
:1026400081E04F3F19F403C081E001C080E080FDCC
:1026500003C081E08E2502C080E090E0B82FB17009
:10266000FB2E80FF1CC080913B0120913C0136E095
:10267000821709F41CC190E0389FF001399FF00DDA
:102680001124E35CFE4F6181561306C0608146133E
:1026900003C06281E61203C001968770E9CFFE2C69
:1026A000EE2009F426C1809172018160809372014D
:1026B000F12C1FC1561308C0431306C0E11004C01B
:1026C00080917201D801A5C04D875E878D859E855A
:1026D0000E94DC11882379F1EE2069F120917201CA
:1026E000822F82958F7090E0029774F080916D0137
:1026F00090916E0198878F831986DB86CA862C8716
:10270000CE0107960E946C1186E0F801ADE6B1E0BB
:1027100001900D928A95E1F70E942F120E942112DA
:102720000DC0561771F04D875E878D859E850E947E
:10273000DC1181111AC0C8010E946C11FF24F394AE
:10274000D8C04313F0CFE110EECF80917201F801B1
:102750008583C8010E946C1186E0EDE6F1E0DF019F
:102760001D928A95E9F7FA2CC4C0EE2021F320913E
:102770007201822F82958F7090E002972CF28091E7
:102780006D0190916E019A8389831B82DD82CC82D8
:102790002E83CE010196B6CFC816D90640F0F601B9
:1027A000E81BF90BCF018039914088F007C0809574
:1027B00090958C0D9D1D8039914048F0F12C7C2D19
:1027C000D98AC88A6E2D89890E94E1114AC0FE2CDF
:1027D000EE2009F4B0CF561333C0431331C020911B
:1027E000720120FD24C0822F82958F70482F50E007
:1027F00041155105E1F0D80115962C9315974F30EE
:10280000510549F08F5F982F9295907F822F8F709E
:10281000892B15968C93C8010E946C1186E0F801F3
:10282000ADE6B1E001900D928A95E1F73DC086E0FA
:10283000F801ADE6B1E001900D928A95E1F759C03B
:102840004D875E878D859E850E94DC1181115CCF4E
:1028500080917201816080937201C8010E946C11A5
:1028600048C0EDE6F1E086E0DF011D928A95E9F7C8
:102870001BC0EE2009F45FCF4D875E878D859E8556
:102880000E94DC11F82E882309F455CF86E0F80168
:10289000ADE6B1E001900D928A95E1F78DE691E009
:1028A0000E94500D0E942F120E94211222C04D87BB
:1028B0005E878D859E850E945D17292F22952F703A
:1028C000223028F49F7039F0811105C00BC02430EC
:1028D00028F49F7049F4805E883020F0C8010E947F
:1028E0006C11BF2CFB2C05C0F8019581907F99F7E6
:1028F000F9CF8F2D61960FB6F894DEBF0FBECDBF16
:10290000DF91CF911F910F91FF90EF90DF90CF90CB
:10291000BF90AF9008951F93CF93DF93CDB7DEB7ED
:102920002C970FB6F894DEBF0FBECDBF4F835887EC
:1029300069877A878B879C87CE0107960E949712BA
:102940008823D1F09F8188852A853B85232B31F010
:102950008F3F31F481E09F3F19F403C081E001C053
:1029600080E080FD47C04F81588569857A858B85D9
:102970009C850E94F0113EC086E0FE013796DE0184
:10298000119601900D928A95E1F7FF81E8856A859D
:102990007B856115710531F0EF3F31F481E0FF3F38
:1029A00019F403C081E001C080E080FD23C02091C4
:1029B0003C0130E0C90101968770992740913B01A5
:1029C00050E084179507F1F1F983EA837D836C83E6
:1029D00096E0929FD001939FB00D1124A35CBE4F4F
:1029E000FE01319601900D929A95E1F780933C019A
:1029F0000E94001216E080913B0190913C018917E2
:102A000071F1189FC0011124835C9E4F0E949712A0
:102A1000882329F1E0913B011E9FF0011124E35C22
:102A2000FE4F4081518162817381848195810E9432
:102A3000F01180913B0190E0019687709927809377
:102A40003B01D9CF0E94B41110923C0110923B017E
:102A5000EDE6F1E086E0DF011D928A95E9F72C961C
:102A60000FB6F894DEBF0FBECDBFDF91CF911F919F
:102A70000895EF92FF920F931F93CF93DF938C01F2
:102A8000892B09F46CC0F12CEE24E394E801219623
:102A9000F8018491843740F4843008F051C08130CB
:102AA00081F0823019F15BC0853709F444C0A8F188
:102AB0009CE7980F903708F052C08F770E94740EF1
:102AC00041C00E5F1F4FFE01849190E2980F983035
:102AD00050F48770FE2D01C0FF0F8A95EAF78F2F03
:102AE0000E94BF1714C00E94560D2DC00E5F1F4FCD
:102AF000FE01849190E2980F983060F48770FE2D6B
:102B000001C0FF0F8A95EAF78F2F0E94C5170E9418
:102B1000EA1719C00E94740E16C00E5F1F4FFE0107
:102B2000C491CC2381F08FE99FE00197F1F700C0B9
:102B30000000C150F6CF0E5F1F4FFE01F49003C09E
:102B40000E94560D8E018F2D882309F49FCFEFE947
:102B5000FFE03197F1F700C000008150F5CFDF9121
:102B6000CF911F910F91FF90EF90089508950895D0
:102B70000C94B7150C94B8150E94BA156093810196
:102B80007093820180938301909384010C949A1135
:102B90000C94BC150F931F93009181011091820139
:102BA0002091830130918401602B712B822B932B18
:102BB0001F910F910C94BC150F931F9300918101ED
:102BC000109182012091830130918401602371234F
:102BD000822393231F910F910C94BC150F931F9385
:102BE0000091810110918201209183013091840133
:102BF00060277127822793271F910F910C94BC1592
:102C00000C94B7150E94001660937D0170937E01AD
:102C100080937F01909380010C949A1160E070E0A2
:102C2000CB010C9402160F931F9341E050E060E03B
:102C300070E08A019B0104C0000F111F221F331F87
:102C40008A95D2F7C901B8011F910F910C94021611
:102C50000F931F9341E050E060E070E004C0440F28
:102C6000551F661F771F8A95D2F780917D0190913D
:102C70007E01A0917F01B09180018A019B01082B08
:102C8000192B2A2B3B2BC901B8011F910F910C94D2
:102C900002160F931F9341E050E060E070E004C023
:102CA000440F551F661F771F8A95D2F740955095A0
:102CB0006095709580917D0190917E01A0917F013A
:102CC000B09180018A019B01082319232A233B2309
:102CD000C901B8011F910F910C9402160F931F9315
:102CE00041E050E060E070E004C0440F551F661FF3
:102CF000771F8A95D2F780917D0190917E01A091F6
:102D00007F01B09180018A019B01082719272A279A
:102D10003B27C901B8011F910F910C9402160F9324
:102D20001F9300917D0110917E0120917F013091D0
:102D30008001602B712B822B932B1F910F910C9490
:102D400002160F931F9300917D0110917E01209137
:102D50007F013091800160237123822393231F918F
:102D60000F910C9402160F931F9300917D01109107
:102D70007E0120917F013091800160277127822799
:102D800093271F910F910C9402160895990F990F94
:102D9000890FE82FE695E695E695877051E001C02A
:102DA000550F8A95EAF785E0E89FF0011124ED5868
:102DB000FE4F20E030E070E04081CB01022E02C0E7
:102DC000969587950A94E2F78170819584278523EB
:102DD000842781932F5F3F4F2530310569F7089590
:102DE000990F990F890F682F669566956695982FAC
:102DF000977085E0689FB001112440E050E080E0CA
:102E0000FB01E40FF51FED58FE4F208130E0092E45
:102E100002C0369527950A94E2F721703327042ED5
:102E200001C0220F0A94EAF7822B4F5F5F4F4530B3
:102E3000510531F70895BF92CF92DF92EF92FF9242
:102E40000F931F93CF93DF938C01C0907D01D0909F
:102E50007E01E0907F01F09080018091810190914E
:102E60008201A0918301B0918401C82AD92AEA2A5B
:102E7000FB2ACFE1D0E0D701C6010C2E04C0B695E5
:102E8000A795979587950A94D2F780FD04C021975E
:102E900090F7B12C07C0BC2EB8018C2F0E944005C2
:102EA0000197A9F38B2DDF91CF911F910F91FF9087
:102EB000EF90DF90CF90BF900895CF93DF93EC0118
:102EC0000E941B17BE010E944005DF91CF9108951B
:102ED0001F93CF93DF93EB0190913A01992321F057
:102EE000CB010E945D1713C0882349F0CB010E94DB
:102EF0001B17182F682FCE010E94C61604C0CB01E5
:102F00000E94F016182FBE01812F0E944005DF910C
:102F1000CF911F910895809185018595859585951F
:102F2000089580918501877008959091850197702B
:102F300081E009F480E008958091A90108959091BD
:102F4000A901892B8093A901089580959091A901E9
:102F500089238093A90108951092A9010895909161
:102F6000A801892B8093A801089580959091A801CC
:102F700089238093A80108951092A8010895909143
:102F8000A701892B8093A701089580959091A701AF
:102F900089238093A70108951092A7010895809135
:102FA0008601089508950C94D2170C94D31790912C
:102FB0008601981721F0809386010C94D517089507
:102FC00080918601882329F01092860180E00C947C
:102FD000D5170895E0910001F09101018091A901B8
:102FE0008083E0910001F091010190818091A8011E
:102FF000892B8083E0910001F09101019081809103
:10300000A701892B808380918601882381F0E0913C
:103010000001F09101019081892B80838091000152
:10302000909101010E94D21881110E94E0178091B5
:103030000001909101010C94010C0C94D21798E0BE
:10304000899F90011124262B209385010E94281628
:10305000809185018595859585950C941D18109214
:10306000850180E00C941D182091850180958223B4
:1030700080938501982F977079F430E0482F082EBF
:10308000000C550B2417350739F0859585958595E6
:103090000E9449160C942F18089580E090E00E9439
:1030A000202521E08D3E9E4F09F020E0822F0895DB
:1030B00082E090E00C94122583E090E00C941225BD
:1030C00084E090E00C941225682F84E090E00C944A
:1030D000262586E090E00C941225682F86E090E08B
:1030E0000C942625AB01BC018FE090E00C943825B0
:1030F000AB01BC0183E190E00C94382560E070E006
:10310000CB010C94781860E070E0CB010E9472183B
:103110000C947E186DEE7EEF80E090E00E944425D6
:1031200060E082E090E00E94262560E083E090E08D
:103130000E94262510928101109282011092830133
:103140001092840160E084E090E00E94262560E017
:1031500085E090E00E94262560E086E090E00E94F5
:1031600026256FEF87E090E00E94262540E050E0A2
:10317000BA0188E090E00E94382560E08DE090E0A0
:103180000E94262540E050E0BA0188E190E00E94CC
:10319000382560E087E190E00E9426250C94831892
:1031A0000C948A18FC01329680911201882331F028
:1031B0008091F10187FF02C09EE101C096E080E0AE
:1031C000915028F021912223D9F38F5FF9CF0895F0
:1031D0009C01FC0132969FEF80E04191461789F0F7
:1031E0009F3F19F4411101C0982F8F5F8630A9F7D6
:1031F0009F3F39F0F901E90FF11D97FDFA956283C0
:10320000089508959C012A5F3F4FFC0142814613B7
:1032100001C01282019682179307B9F70895262FED
:103220002695269526952E3168F4FC01E20FF11DB6
:10323000677021E030E001C0220F6A95EAF78281D1
:10324000282B22830895262F2695269526952E3104
:1032500070F4FC01E20FF11D677021E030E001C065
:10326000220F6A95EAF72095828128232283089508
:1032700020911201222329F02091F10127FD0C94C5
:103280000F190C94E81820911201222329F02091A3
:10329000F10127FD0C9423190C94021920911201BD
:1032A000FC013296222331F08091F10187FF02C0A8
:1032B0008EE101C086E0DF011D928A95E9F708954D
:1032C00008950C9460190C946019CF930E946319AF
:1032D0000E9422080E946119C0E08C2F0E94B4084D
:1032E000811104C0CF5FC430C1F701C081E0CF912C
:1032F00008950C9460190C9479190C947B190C9412
:1033000060190E94B4110E94A71C0E94F50B0E9434
:10331000EB020C947F1982E084BD93E095BD9AEF97
:1033200097BD80936E0008952FB7F8948091ED01BA
:103330009091EE01A091EF01B091F0012FBF08959F
:10334000CF92DF92EF92FF920F931F932FB7F894D3
:103350004091ED015091EE016091EF017091F0010B
:103360002FBF6A017B01EE24FF248C0120E030E0B6
:10337000C016D106E206F30610F4415051099A0135
:10338000281B390BC9011F910F91FF90EF90DF901F
:10339000CF90089578941F920F920FB60F92112438
:1033A0008F939F93AF93BF938091ED019091EE0126
:1033B000A091EF01B091F0010196A11DB11D809384
:1033C000ED019093EE01A093EF01B093F001BF9156
:1033D000AF919F918F910F900FBE0F901F901895F6
:1033E00081E08093E00080E28093D8001092C900D1
:1033F0008FE19EE40197F1F700C0000087E090EBB9
:10340000DC018093010290930202A0930302B09327
:1034100004029CE088E10FB6F894A89580936000C0
:103420000FBE90936000FFCF0E944D18811102C023
:103430000E94D0180E9458188093AA010E94601818
:1034400090E09093F2018093F1010E945C18682F44
:1034500070E080E090E00C94C8158091AD0180FF91
:103460000BC06091050185E0689FB001112475953E
:103470006795759567952BC081FF09C0609105011F
:1034800085E0689FB00111247595679520C082FF83
:1034900007C06091050185E0689FB001112417C045
:1034A0009091AE019923D1F060910401961788F7AD
:1034B0002091050185E0289F90011124929FA00191
:1034C000939F500D112470E0CA010E94BC24603803
:1034D000710540F46115710519F406C065E070E0EE
:1034E000862F08958FE7089581E008958091AD01BA
:1034F00080FF08C06091030170E075956795759530
:10350000679521C081FF06C06091030170E0759549
:10351000679519C082FF04C06091030170E010C07C
:103520009091AE01992399F0609102019617A0F74E
:1035300080910301899FC001112470E00E94BC2486
:103540006038710540F46115710519F406C061E039
:1035500070E0862F08958FE7089581E00895803FF9
:1035600021F40E942D1A819504C0813F29F40E9404
:103570002D1A8093B2010895823F21F40E942D1AE2
:10358000819504C0833F29F40E942D1A8093B101D4
:103590000895893F19F40E94761A05C08A3F31F4D4
:1035A0000E94761A81958093B30108958B3F21F490
:1035B0000E94761A819504C08C3F29F40E94761AE5
:1035C0008093B4010895843F21F48091B00181601B
:1035D00017C0853F21F48091B001826011C0863F01
:1035E00021F48091B00184600BC0873F21F4809169
:1035F000B001886005C0883F31F48091B0018061DE
:103600008093B00108958D3F21F48091AD018160D8
:103610000BC08E3F21F48091AD01826005C08F3FC9
:1036200029F48091AD0184608093AD010895803FBD
:1036300039F48091B20187FF6CC01092B20169C069
:10364000813F29F48091B2011816BCF362C09091B9
:10365000B101823F29F497FF5CC01092B10159C0BB
:10366000833F19F41916CCF354C0893F41F480917B
:10367000B30118160CF04DC01092B3014AC08A3F36
:1036800029F48091B30187FF44C0F6CF8B3F39F412
:103690008091B40187FF3DC01092B4013AC08C3FC5
:1036A00029F48091B4011816BCF333C0843F21F48F
:1036B0008091B0018E7F17C0853F21F48091B001C9
:1036C0008D7F11C0863F21F48091B0018B7F0BC0AC
:1036D000873F21F48091B001877F05C0883F31F496
:1036E0008091B0018F7E8093B00113C08D3F21F493
:1036F0008091AD018E7F0BC08E3F21F48091AD0192
:103700008D7F05C08F3F29F48091AD018B7F809321
:10371000AD018091B10181110EC08091B201811182
:103720000AC08091B301811106C08091B40181115A
:1037300002C01092AE0108958FEA91E00E941B0C26
:103740000E9494199093AC018093AB0108951F934C
:10375000CF93DF938091AB019091AC010E94A019AF
:10376000AC019091AE01992321F02091060130E047
:1037700006C0209107018AE0289F9001112442177A
:10378000530708F477C08091B101C091B201D09184
:10379000B3011091B401811107C0C11167C0D111EB
:1037A00065C0111163C066C09F3F19F09F5F909381
:1037B000AE01181624F40E942D1A8093B101809155
:1037C000B10187FF05C00E942D1A81958093B10138
:1037D0001C1624F40E942D1A8093B2018091B2012C
:1037E00087FF05C00E942D1A81958093B201309108
:1037F000B1013323C1F02091B2012223A1F045EBA6
:103800003403C0011124892F911101C081E08093FC
:10381000B10135EB2303C0011124892F911101C09F
:1038200081E08093B2011D1624F40E94761A8093E1
:10383000B3018091B30187FF05C00E94761A81957C
:103840008093B301111624F40E94761A8093B40178
:103850008091B40187FF05C00E94761A81958093FC
:10386000B401DF91CF911F910C949C1B9F3F09F0F5
:103870009DCFAECFDF91CF911F910895EFEAF1E098
:1038800086E0DF011D928A95E9F71092AE01109251
:10389000AD010895E1E8F0E0808188608083808157
:1038A000816080838FB7F89493E09093890090EDC6
:1038B000909388008FBF0895EFE6F0E080818260EA
:1038C00080830895EFE6F0E080818D7F8083089506
:1038D0001F920F920FB60F9211242F933F934F9385
:1038E0005F936F937F938F939F93AF93BF93EF9368
:1038F000FF938091B5019091B60101969093B60126
:103900008093B501811103C082E00E94EB02E09137
:10391000B601E695E695F0E0E657FD4FE49180911B
:10392000B5018E1303C080E00E94EB02FF91EF917E
:10393000BF91AF919F918F917F916F915F914F91C7
:103940003F912F910F900FBE0F901F9018950E94DE
:103950004D18811102C00E94D0180E9469188093EE
:10396000F301282F269530E02630310524F08170B0
:103970008A608093F3018091F30180FF02C08695F5
:1039800001C080E00C9474022091F301822F86958F
:10399000482F50E04530510544F48F5F982F990F20
:1039A000822F8170892B8093F3018091F3018160D4
:1039B0008093F3010E946D188091F30186950C9419
:1039C00074028091F301982F969591F09158990F78
:1039D0008170892B8093F3018E7F91E009F490E050
:1039E0008091F30190FB80F98093F3010E946D18A0
:1039F0008091F30186950C9474028091F30180FD0F
:103A000011C081608093F301813019F483E08093C9
:103A1000F3018091F3010E946D188091F301869566
:103A20000C94740208958091F30180FF08C08E7F8A
:103A30008093F3010E946D1880E00C947402089545
:103A40008091F30180FD0C94131D0C94FD1C90914A
:103A5000F301892F86958F5F8F779170863028F4D8
:103A6000880F892B8093F30102C09093F30180911A
:103A7000F3018E7F91E009F490E08091F30190FBD7
:103A800080F98093F3010E946D188091F30186956F
:103A90000C947402863008F085E0880F9091F30151
:103AA0009170892B8093F3018E7F91E009F490E06F
:103AB0008091F30190FB80F98093F3010E946D18CF
:103AC0008091F30186950C9474028091D70108953A
:103AD0000F931F93CF93DF9300D01F92CDB7DEB724
:103AE0008C010E94DD1F823011F0843021F584E0CA
:103AF00089831B830A8382E08093E9008FEF909192
:103B0000E800815095FD06C095ED9A95F1F700000B
:103B10008111F5CF8091E80085FF0DC040E050E0B5
:103B200063E070E0CE0101960E94FA1F8091E800E8
:103B30008E778093E8000F900F900F90DF91CF91D8
:103B40001F910F910895CF93DF9300D01F92CDB7AF
:103B5000DEB72091F801243031F523E02983805825
:103B600091099B838A8382E08093E9008FEF909193
:103B7000E800815095FD06C095ED9A95F1F700009B
:103B80008111F5CF8091E80085FF0DC040E050E045
:103B900063E070E0CE0101960E94FA1F8091E80078
:103BA0008E778093E8000F900F900F90DF91CF9168
:103BB0000895CF93DF93EC010E94DD1F823011F056
:103BC0008430F9F482E08093E9008FEF9091E8006F
:103BD000815095FD06C095ED9A95F1F70000811191
:103BE000F5CF8091E80085FF0CC040E050E066E032
:103BF00070E0CE010E94FA1F8091E8008E778093DA
:103C0000E800DF91CF910895CF93DF93EC010E94FC
:103C1000DD1F823011F08430D9F5809112018823A4
:103C200039F08091F10187FF03C060E282E002C0B9
:103C300068E081E08093E9008FEF9091E800815087
:103C400095FD06C095ED9A95F1F700008111F5CF2D
:103C50008091E80085FF1CC080911201811105C090
:103C600040E050E068E070E003C070E040E050E009
:103C7000CE010E94FA1F8091E8008E778093E800C1
:103C800080E2FE01A7EBB1E001900D928A95E1F789
:103C9000DF91CF9108958091F701811109C00E94B1
:103CA0008B210E94E8218091E20084608093E200F1
:103CB00008951092F701089508950C945C1C0E94D9
:103CC00081190E94621C0E94F50B0C94EB0242E0E9
:103CD00061EC81E00E94042142E261EC82E00C94FC
:103CE00004218091FA01833009F460C030F48130FE
:103CF00071F0823009F499C008958A3009F485C0C2
:103D00008B3009F46BC0893009F0A7C020C08091C6
:103D1000F901813A09F0A1C08091E800877F809382
:103D2000E8008091FD019091FE01892B21F460E271
:103D300087EB91E003C060E080E090E070E00E94DB
:103D400045208091E8008B778093E800089580916A
:103D5000F901813209F081C08091FD019091FE014D
:103D6000029708F07AC08091E800877F8093E8008E
:103D70008091E80082FD05C08091F8018111F8CFA3
:103D80006CC02091F3008091F20090E0922B02979A
:103D900029F48091F1008B7F813021F48091F10032
:103DA0008093D7018091E8008B7753C08091F9010F
:103DB000813A09F052C08091FD019091FE01892B5A
:103DC00009F04BC08091E800877F8093E8008091E4
:103DD000E80080FFFCCF8091120136C08091F9018C
:103DE0008132D9F58091FD019091FE01892BA9F5D1
:103DF0008091E800877F8093E8000E9439218091BC
:103E0000FB01809312010C94B4118091F90181326D
:103E100021F58091E800877F8093E8000E94392196
:103E20008091FC018093D80108958091F901813A35
:103E3000A1F48091E800877F8093E8008091E800FA
:103E400080FFFCCF8091D8018093F1008091E80041
:103E50008E778093E8000C943921089584B7877F8A
:103E600084BF0FB6F894A895809160008861809314
:103E70006000109260000FBE80E880936100109295
:103E800061000E94650C0E948B210E94E8218091B4
:103E9000E20084608093E20078940E947D240E9476
:103EA0006D0C88E091E00E94F00B0E944A1C80910A
:103EB000F801853069F40E947D198091F60188230C
:103EC000B1F30E946519882391F30E94E41FEFCF9C
:103ED0000E94790CECCF0C946D1F292F33272330CF
:103EE0003105C9F060F42130310581F0223031050F
:103EF00009F04AC08BE390E028EF32E049C021325C
:103F0000310511F12232310579F13EC082E190E0B4
:103F100023E333E03DC099278130910561F040F003
:103F20008230910559F0039779F5EAECF2E008C088
:103F3000E4EFF2E005C0E4EEF2E002C0E0EDF2E012
:103F4000849190E09F0124C06115710541F06130BA
:103F50007105D1F489E090E023E233E019C089E0F3
:103F600090E02AE033E014C06115710541F0613042
:103F7000710551F480EC90E025E433E009C080E461
:103F800090E025E034E004C080E090E020E030E004
:103F9000FA013183208308950895CF93C82F0E949A
:103FA000CC1FC093D901CF9108958091F80184303E
:103FB00011F081E0089582E008958091D901811186
:103FC00002C00C94D51F089580E189BD82E189BDAE
:103FD00009B400FEFDCF8091D8008F7D8093D8007A
:103FE0008091E00082608093E0008091E00081FD9C
:103FF000FCCF0895CF92DF92EF92FF920F931F9321
:10400000CF93DF93EC018B017A010E94582181113B
:1040100033C0E114F10439F0F70180819181081B6C
:10402000190BC80FD91FC12CD12C0115110519F17D
:104030008091E80085FD16C08091E8008E7780931E
:10404000E800E114F10449F0F70180819181C80E84
:10405000D91ED182C08285E00FC00E9458218823DA
:1040600021F30AC089918093F10001501109FFEFFB
:10407000CF1ADF0ADACF80E0DF91CF911F910F9145
:10408000FF90EF90DF90CF9008952091FF01309145
:1040900000022617370748F06115710539F42091A1
:1040A000E8002E772093E80001C0B901FC0120E070
:1040B0006115710579F18091F8018823F1F185305E
:1040C000F1F18091E80083FD3CC08091E80082FD21
:1040D0002EC08091E80080FFEBCF2091F30080910B
:1040E000F20090E0922B6115710551F08830910536
:1040F00038F421912093F100615071090196F3CFBA
:1041000021E0089709F020E08091E8008E77809305
:10411000E800CECF2111CFCF0AC08091F8018823CB
:1041200061F0853061F08091E80083FD0AC08091E4
:10413000E80082FFF2CF80E0089582E0089583E0F6
:10414000089581E008952091FF0130910002261723
:10415000370748F06115710539F42091E8002E7792
:104160002093E80001C0B901FC0120E06115710550
:1041700091F18091F801882309F440C0853009F459
:104180003FC08091E80083FD3DC08091E80082FD42
:104190002FC08091E80080FFE9CF2091F30080914B
:1041A000F20090E0922B6115710559F0883091056D
:1041B00040F424912093F1003196615071090196E9
:1041C000F2CF21E0089709F020E08091E8008E7797
:1041D0008093E800CBCF2111CCCF0AC08091F801A9
:1041E000882361F0853061F08091E80083FD0AC08A
:1041F0008091E80082FFF2CF80E0089582E0089588
:1042000083E0089581E00895982F973068F59093A2
:10421000E900981739F07091EC002091ED00509171
:10422000F00003C0242F762F50E021FD02C09F5FD5
:10423000ECCF3091EB003E7F3093EB003091ED00FE
:104240003D7F3093ED003091EB0031603093EB0017
:104250007093EC002093ED005093F0002091EE005D
:1042600027FDE5CF80E008958F708093E90081E01D
:1042700008958091F90187FF11C08091E80082FDC7
:1042800005C08091F8018111F8CF11C08091E8003C
:104290008B770BC08091F801882349F08091E8006A
:1042A00080FFF8CF8091E8008E778093E800089532
:1042B0002091E4003091E50095E64091EC00842FD8
:1042C000817040FF23C08091E80080FD1DC0809177
:1042D000F801882399F0853099F08091EB0085FDF5
:1042E00011C04091E4005091E5002417350729F3EF
:1042F000915011F09A01E1CF84E0089582E0089591
:1043000083E0089581E0089580E008954091E800F9
:1043100042FFDDCF08950E94F9210E940122E0EEC4
:10432000F0E0808181608083E8EDF0E080818F772C
:10433000808319BCA7EDB0E08C918E7F8C93808137
:104340008F7E80831092F70108950F931F93CF9370
:10435000DF930E94F9210E940122C8EDD0E08881FC
:104360008F77888388818068888388818F7D888320
:1043700019BC1092F8011092F4011092F6011092FB
:10438000F50100EE10E0F80180818B7F8083888149
:104390008160888342E060E080E00E940421E1EED9
:1043A000F0E080818E7F8083E2EEF0E080818160AA
:1043B0008083808188608083F80180818E7F808304
:1043C000888180618883DF91CF911F910F9108953B
:1043D000E8EDF0E080818F7E8083E7EDF0E0808182
:1043E0008160808384E082BF81E08093F7010C9438
:1043F000A521E8EDF0E080818E7F80831092E200BD
:1044000008951092DA001092E10008951F920F9221
:104410000FB60F9211242F933F934F935F936F9397
:104420007F938F939F93AF93BF93EF93FF9380916D
:10443000E10082FF0BC08091E20082FF07C0809103
:10444000E1008B7F8093E1000E947C248091DA0060
:1044500080FF1FC08091D80080FF1BC08091DA00D0
:104460008E7F8093DA008091D90080FF0DC080E1BB
:1044700089BD82E189BD09B400FEFDCF81E0809352
:10448000F8010E944B1E05C019BC1092F8010E9451
:10449000591E8091E10080FF19C08091E20080FFE9
:1044A00015C08091E2008E7F8093E2008091E2004F
:1044B00080618093E2008091D80080628093D80070
:1044C00019BC85E08093F8010E945D1E8091E10097
:1044D00084FF30C08091E20084FF2CC080E189BD60
:1044E00082E189BD09B400FEFDCF8091D8008F7DA7
:1044F0008093D8008091E1008F7E8093E1008091CD
:10450000E2008F7E8093E2008091E20081608093E0
:10451000E2008091F401882311F084E007C08091CB
:10452000E30087FD02C081E001C083E08093F801D1
:104530000E945F1E8091E10083FF29C08091E2000C
:1045400083FF25C08091E100877F8093E10082E0B6
:104550008093F8011092F4018091E1008E7F8093A6
:10456000E1008091E2008E7F8093E2008091E20082
:1045700080618093E20042E060E080E00E940421DC
:104580008091F00088608093F0000E945C1EFF9193
:10459000EF91BF91AF919F918F917F916F915F91BB
:1045A0004F913F912F910F900FBE0F901F90189534
:1045B0001F920F920FB60F9211242F933F934F9398
:1045C0005F936F937F938F939F93AF93BF93CF939B
:1045D000DF93EF93FF93C091E900CF708091EC00DF
:1045E000D82FD17080FDD0E81092E9008091F000C2
:1045F000877F8093F00078940E941C231092E9003A
:104600008091F00088608093F000CD2BCF70C09334
:10461000E900FF91EF91DF91CF91BF91AF919F9111
:104620008F917F916F915F914F913F912F910F905B
:104630000FBE0F901F9018951F93CF93DF93CDB7A8
:10464000DEB7AA970FB6F894DEBF0FBECDBFE9EF75
:10465000F1E08091F100819322E0E130F207C9F7A7
:104660000E94711E8091E80083FF2EC18091F901A4
:104670009091FA01492F50E04A30510508F024C1C9
:10468000FA01E556FF4F0C94F224803821F082386D
:1046900009F01AC108C08091F5019091F6019923A3
:1046A00089F082600FC08091FD018F70873008F023
:1046B0000BC18093E9008091EB0085FB882780F98E
:1046C0001092E9009091E800977F9093E800809322
:1046D000F1001092F100D1C0282F2D7F09F0F4C015
:1046E000882319F0823061F0EFC08091FB018130A6
:1046F00009F0EAC0933009F080E08093F6012EC003
:104700008091FB0181112AC08091FD018F702FEFF4
:10471000280F263008F0D8C08093E9002091EB00E4
:1047200020FF1CC0933021F48091EB00806214C004
:104730009091EB0090619093EB0021E030E0A901B3
:1047400002C0440F551F8A95E2F74093EA00109289
:10475000EA008091EB0088608093EB001092E90002
:104760008091E800877F8093E8000E943921ACC0E7
:104770008111AAC01091FB011F778091E30080781E
:10478000812B8093E3008091E800877F8093E8008D
:104790000E9439218091E80080FFFCCF8091E300E6
:1047A00080688093E300111102C082E001C083E0C1
:1047B0008093F80189C08058823008F085C08091CC
:1047C000FB019091FC018C3D53E0950779F583E066
:1047D0008A838AE289834FB7F894DE01139620E03A
:1047E0003EE051E2E32FF0E050935700E49120FFC8
:1047F00003C0E295EF703F5FEF708E2F90E0EA30DC
:1048000010F0C79601C0C0968D939D932F5F243101
:1048100049F74FBF8091E800877F8093E8006AE204
:1048200070E0CE0101960E94452016C06091FD0106
:104830007091FE01AE014F5F5F4F0E946B1FBC0184
:10484000892B09F441C09091E800977F9093E8008C
:1048500089819A810E94A3208091E8008B778093C0
:10486000E80032C0803881F58091E800877F80932E
:10487000E8008091F4018093F1008091E8008E7748
:1048800072CF811121C08091FB019091FC01992789
:104890000297D4F48091E800877F8093E8008091AC
:1048A000FB018093F4010E9439218091F401811170
:1048B00006C08091E30087FD02C081E001C084E072
:1048C0008093F8010E94671E8091E80083FF0AC070
:1048D0008091E800877F8093E8008091EB00806200
:1048E0008093EB00AA960FB6F894DEBF0FBECDBF43
:1048F000DF91CF911F9108950895CF938091F80192
:104900008823A1F0C091E900CF709091EC00892F2D
:10491000817090FD80E8C82B1092E9008091E8003A
:1049200083FD0E941C23CF70C093E900CF910895AE
:10493000DB018F939F930E940725BF91AF91A29FA8
:10494000800D911DA39F900DB29F900D112408958D
:10495000AA1BBB1B51E107C0AA1FBB1FA617B707A5
:1049600010F0A61BB70B881F991F5A95A9F78095C1
:104970009095BC01CD01089597FB072E16F4009485
:1049800007D077FD09D00E94A82407FC05D03EF48B
:10499000909581959F4F0895709561957F4F0895EB
:1049A000A1E21A2EAA1BBB1BFD010DC0AA1FBB1F33
:1049B000EE1FFF1FA217B307E407F50720F0A21BA5
:1049C000B30BE40BF50B661F771F881F991F1A9412
:1049D00069F760957095809590959B01AC01BD013C
:1049E000CF010895EE0FFF1F0590F491E02D09947B
:1049F000A29FB001B39FC001A39F700D811D112420
:104A0000911DB29F700D811D1124911D08950E946A
:104A1000F824A59F900DB49F900DA49F800D911D2B
:104A200011240895F999FECF92BD81BDF89A992776
:104A300080B50895A6E1B0E044E050E00C944C2528
:104A4000A8E1B0E042E050E00C944C25262FF99903
:104A5000FECF92BD81BDF89A019700B4021639F0DD
:104A60001FBA20BD0FB6F894FA9AF99A0FBE0895AE
:104A70000396272F0E9427250E942625252F0E9476
:104A80002725242F0C9427250196272F0E942725C0
:104A90000C942625DC01CB01FC01F999FECF06C060
:104AA000F2BDE1BDF89A319600B40D9241505040EC
:084AB000B8F70895F894FFCF58
:104AB80087012808140A321E651D041ED91DA31D6E
:0C4AC800681D019294F6F597C633320089
:00000001FF
